S01800004C696E652054726163657220636F64652E7372656348
S113000045C0000061C0000073C000005CC0000077
S11300105AC0000058C0000056C0000054C0000080
S113002052C0000050C000004EC000004CC0000090
S11300304AC0000048C0000046C0000044C00000A0
S11300406BC0000040C000003EC000003CC0000087
S11300503AC0000038C0000036C0000034C00000C0
S113006032C0000030C000002EC000002CC00000D0
S11300702AC0000028C0000026C0000024C00000E0
S113008022C0000020C000001EC0000011241FBEBA
S1130090CFEFD0E1DEBFCDBF11E0A0E0B1E0E8EDED
S11300A0F5E000E00BBF02C007900D92A031B1074C
S11300B0D9F721E0A0E1B1E001C01D92A233B2075B
S11300C0E1F72DD187C29CCF1F920F920FB60F92EA
S11300D011248F939F9381E090E090931301809378
S11300E012019F918F910F900FBE0F901F90189542
S11300F01F920F920FB60F9211248F939F9381E05A
S113010090E090931101809310019F918F910F9033
S11301100FBE0F901F9018951F920F920FB60F925B
S113012011240BB60F92CF92DF92EF92FF921F939E
S11301302F933F934F935F936F937F938F939F93EB
S1130140AF93BF93EF93FF93CF93DF93CDB7DEB716
S11301506097DEBFCDBF80E487B987E886B986B1F2
S1130160806486B9349BFECF809128019091290147
S113017095B984B98091120190911301019709F006
S113018043C01CC0FC01EE0FFF1FE85EFE4F208140
S113019031810196FC01EE0FFF1FE85EFE4F4081A6
S11301A05181241735072CF45093290140932801D9
S11301B007C0309329012093280102C080E090E019
S11301C087309105FCF280E090E01BC0FC01EE0F4B
S11301D0FF1FE85EFE4F208131810196FC01EE0F86
S11301E0FF1FE85EFE4F40815181421753072CF4F4
S11301F050932B0140932A0104C030932B01209388
S11302002A018730910514F3809110019091110116
S1130210019709F064C080912801909129012091EF
S11302202A0130912B01821B930B6091280170915C
S11302302901621B730BA7D1CB0114E6189FB001EF
S1130240199F700D1124072E000C880B990BACD04C
S11302506B017C018091140190911501019690939A
S113026015018093140112BF82EA8FBD89E18EBD0E
S11302708FE193E097BD86BD8091140190911501A3
S1130280019769F58AE083B980E1E0E0F1E0DE01FD
S1130290119601900D928A95E1F780EC80936200AB
S11302A069817A818B819C81680F791F072E000CEC
S11302B0880B990B79D0A7019601DAD042D09B0123
S11302C021563F4F3BBD2ABD2FE930E0C901861BB3
S11302D0970B99BD88BD1092150110921401609678
S11302E00FB6F894DEBF0FBECDBFDF91CF91FF9163
S11302F0EF91BF91AF919F918F917F916F915F919A
S11303004F913F912F911F91FF90EF90DF90CF90ED
S11303100F900BBE0F900FBE0F901F9018958FEF8C
S113032087BB81BB8FE082B91092610087E083BFF5
S113033081E087BF83E089BF8AE080936A00789474
S1130340FFCF04D06894B1118DC0089570D088F0A7
S11303509F5790F0B92F9927B751A0F0D1F0660FAD
S1130360771F881F991F1AF0BA95C9F712C0B130C8
S113037081F077D0B1E0089574C0672F782F882773
S1130380B85F39F0B93FCCF3869577956795B39507
S1130390D9F73EF490958095709561957F4F8F4F76
S11303A09F4F0895E89409C097FB3EF4909580957B
S11303B0709561957F4F8F4F9F4F9923A9F0F92F27
S11303C096E9BB279395F695879577956795B795A5
S11303D0F111F8CFFAF4BB0F11F460FF1BC06F5F8B
S11303E07F4F8F4F9F4F16C0882311F096E911C09D
S11303F0772321F09EE8872F762F05C0662371F0BE
S113040096E8862F70E060E02AF09A95660F771FD1
S1130410881FDAF7880F9695879597F9089557FD01
S11304209058440F551F59F05F3F71F04795880F5E
S113043097FB991F61F09F3F79F0879508951216F5
S113044013061406551FF2CF4695F1DF08C01616A1
S113045017061806991FF1CF869571056105089452
S11304600895E894BB2766277727CB0197F9089569
S11304700BD078C069D028F06ED018F0952309F01D
S11304805AC05FC01124EECFCADFA0F3959FD1F309
S1130490950F50E0551F629FF001729FBB27F00D2E
S11304A0B11D639FAA27F00DB11DAA1F649F662783
S11304B0B00DA11D661F829F2227B00DA11D621FD2
S11304C0739FB00DA11D621F839FA00D611D221F8C
S11304D0749F3327A00D611D231F849F600D211D70
S11304E0822F762F6A2F11249F5750408AF0E1F013
S11304F088234AF0EE0FFF1FBB1F661F771F881F5C
S113050091505040A9F79E3F510570F014C0AACFF6
S11305105F3FECF3983EDCF3869577956795B79546
S1130520F795E7959F5FC1F7FE2B880F911D969570
S1130530879597F9089597F99F6780E870E060E0E0
S113054008959FEF80EC089500240A941616170668
S113055018060906089500240A94121613061406B0
S113056005060895092E0394000C11F4882352F013
S1130570BB0F40F4BF2B11F460FF04C06F5F7F4FCB
S11305808F4F9F4F089597FB072E16F4009406D0C3
S113059077FD08D00BD007FC05D03EF490958195EB
S11305A09F4F0895709561957F4F0895AA1BBB1BBB
S11305B051E107C0AA1FBB1FA617B70710F0A61B5F
S11305C0B70B881F991F5A95A9F780959095BC0180
S10B05D0CD010895F894FFCF5A
S11305D8FCFFFDFFFEFFFFFF010002000300040013
S9030000FC
